:100000000C9458000C9480000C9480000C94800098
:100010000C9480000C9480000C9480000C94800060
:100020000C9480000C9480000C9480000C94800050
:100030000C9480000C9480000C9480000C94800040
:100040000C94DC020C9480000C94AA020C948402A0
:100050000C9480000C9480000C9480000C94800020
:100060000C9480000C948000000000002500280003
:100070002B00040404040404040402020202020229
:10008000030303030303010204081020408001025C
:1000900004081020010204081020000000080002DB
:1000A0000100000304070000000000000000D0046D
:1000B00011241FBECFEFD8E0DEBFCDBF11E0A0E01E
:1000C000B1E0EEE4FAE002C005900D92AC33B10766
:1000D000D9F721E0ACE3B1E001C01D92A23EB20726
:1000E000E1F710E0C8E5D0E004C02197FE010E94CE
:1000F0001F05C735D107C9F70E9426030C942505B3
:100100000C940000AF92BF92CF92DF92EF92FF92D9
:100110000F931F93CF93DF936C017B018B01040F2F
:10012000151FEB015E01AE18BF08C017D10759F0CB
:100130006991D601ED91FC910190F081E02DC6010D
:100140000995892B79F7C501DF91CF911F910F9107
:10015000FF90EF90DF90CF90BF90AF900895FC019B
:10016000538D448D252F30E0842F90E0821B930B1C
:10017000541710F0CF96089501970895FC01918DC2
:10018000828D981761F0A28DAE0FBF2FB11D5D96C5
:100190008C91928D9F5F9F73928F90E008958FEF67
:1001A0009FEF0895FC01918D828D981731F0828D1B
:1001B000E80FF11D858D90E008958FEF9FEF089572
:1001C000FC01918D228D892F90E0805C9F4F821BD6
:1001D00091098F739927089585E491E00E94E000CA
:1001E00021E0892B09F420E0822F089580E090E03F
:1001F000892B29F00E94EC0081110C9400000895D5
:10020000FC01A48DA80FB92FB11DA35ABF4F2C918B
:10021000848D90E001968F739927848FA689B78982
:100220002C93A089B1898C91837080648C93938D79
:10023000848D981306C00288F389E02D80818F7D1C
:1002400080830895EF92FF920F931F93CF93DF93D4
:10025000EC0181E0888F9B8D8C8D98131AC0E88902
:10026000F989808185FF15C09FB7F894EE89FF89D1
:100270006083E889F98980818370806480839FBF6F
:1002800081E090E0DF91CF911F910F91FF90EF906F
:100290000895F62E0B8D10E00F5F1F4F0F7311277F
:1002A000E02E8C8D8E110CC00FB607FCFACFE889BA
:1002B000F989808185FFF5CFCE010E940001F1CF41
:1002C000EB8DEC0FFD2FF11DE35AFF4FF0829FB72E
:1002D000F8940B8FEA89FB8980818062CFCFCF931E
:1002E000DF93EC01888D8823B9F0AA89BB89E8895E
:1002F000F9898C9185FD03C0808186FD0DC00FB604
:1003000007FCF7CF8C9185FFF2CF808185FFEDCF81
:10031000CE010E940001E9CFDF91CF91089590E0D6
:10032000FC01E656FF4F2491FC01EA57FF4F349140
:10033000FC01EE58FF4FE491EE23C9F0222339F07F
:10034000233001F1A8F4213019F1223029F1F0E035
:10035000EE0FFF1FE859FF4FA591B4918FB7F894A6
:10036000EC91611126C030953E233C938FBF0895D8
:100370002730A9F02830C9F0243049F78091800057
:100380008F7D03C0809180008F7780938000DFCFC6
:1003900084B58F7784BDDBCF84B58F7DFBCF809113
:1003A000B0008F778093B000D2CF8091B0008F7D66
:1003B000F9CF3E2BDACF3FB7F8948091410190916D
:1003C0004201A0914301B091440126B5A89B05C00C
:1003D0002F3F19F00196A11DB11D3FBFBA2FA92FC4
:1003E000982F8827BC01CD01620F711D811D911DC1
:1003F00042E0660F771F881F991F4A95D1F708952D
:100400008F929F92AF92BF92CF92DF92EF92FF9224
:100410000E94DB014B015C0188EEC82E83E0D82EE0
:10042000E12CF12C0E94DB01681979098A099B09EA
:10043000683E734081059105A8F321E0C21AD108F6
:10044000E108F10888EE880E83E0981EA11CB11C1B
:10045000C114D104E104F10429F7FF90EF90DF907B
:10046000CF90BF90AF909F908F9008958F929F9262
:10047000AF92BF920F931F93CF93DF93CDB7DEB7A9
:10048000A1970FB6F894DEBF0FBECDBF19A24230C0
:1004900008F44AE08E010F5D1F4F842E912CB12C81
:1004A000A12CA50194010E94FD04E62FB901CA0107
:1004B000EA3044F5E05DD801EE938D01232B242B27
:1004C000252B79F790E080E0109769F0FD0101900D
:1004D0000020E9F73197AF014A1B5B0BBD0185E4B2
:1004E00091E00E948200A1960FB6F894DEBF0FBE85
:1004F000CDBFDF91CF911F910F91BF90AF909F9093
:100500008F900895E95CD7CF1F920F920FB60F928C
:1005100011242F933F934F935F936F937F938F9308
:100520009F93AF93BF93EF93FF9385E491E00E9475
:100530000001FF91EF91BF91AF919F918F917F91BA
:100540006F915F914F913F912F910F900FBE0F9040
:100550001F9018951F920F920FB60F9211242F9390
:100560008F939F93EF93FF93E0915501F091560184
:100570008081E0915B01F0915C0182FD1BC0908164
:1005800080915E018F5F8F7320915F01821741F030
:10059000E0915E01F0E0EB5BFE4F958F80935E0192
:1005A000FF91EF919F918F912F910F900FBE0F9020
:1005B0001F9018958081F4CF1F920F920FB60F9263
:1005C00011242F933F938F939F93AF93BF93809169
:1005D0003D0190913E01A0913F01B09140013091C9
:1005E0003C0123E0230F2D3758F50196A11DB11DC5
:1005F00020933C0180933D0190933E01A0933F01E5
:10060000B09340018091410190914201A09143013A
:10061000B09144010196A11DB11D809341019093B9
:100620004201A0934301B0934401BF91AF919F91C8
:100630008F913F912F910F900FBE0F901F901895A3
:1006400026E8230F0296A11DB11DD2CF789484B560
:10065000826084BD84B5816084BD85B5826085BDBE
:1006600085B5816085BD80916E00816080936E004C
:10067000109281008091810082608093810080913E
:1006800081008160809381008091800081608093EF
:1006900080008091B10084608093B1008091B000AF
:1006A00081608093B00080917A00846080937A00AA
:1006B00080917A00826080937A0080917A008160D4
:1006C00080937A0080917A00806880937A001092FB
:1006D000C100E0915501F091560182E08083E091E4
:1006E0005101F09152011082E0915301F0915401B7
:1006F0008FEC808310925D01E0915901F0915A01D5
:1007000086E08083E0915701F091580180818061FB
:100710008083E0915701F091580180818860808347
:10072000E0915701F0915801808180688083E091C9
:100730005701F091580180818F7D80838EE0E82EF3
:1007400081E0F82E0CE111E090E0C92E90E0D92E66
:10075000E0E0F1E081919191DF01129723E282279D
:100760008D939C93EE16FF06A9F7CEE0D1E0899019
:10077000999082E28826092C000CAA08BB084AE05E
:10078000C501B401B7FE0DC06DE285E491E00E94A1
:10079000220166277727CB01681979098A099B0905
:1007A0004AE00E9436020C171D0709F760E080E05E
:1007B0000E948F0160E081E00E948F0161E082E091
:1007C0000E948F0161E083E00E948F0160E084E07D
:1007D0000E948F0160E085E00E948F0160E086E06A
:1007E0000E948F0161E087E00E948F010E94000259
:1007F00060E080E00E948F0161E081E00E948F0153
:1008000061E082E00E948F0161E083E00E948F013D
:1008100060E084E00E948F0160E085E00E948F012B
:1008200061E086E00E948F0161E087E00E948F0115
:100830000E94000260E080E00E948F0161E081E0A0
:100840000E948F0160E082E00E948F0161E083E0FE
:100850000E948F0161E084E00E948F0161E085E0E9
:100860000E948F0161E086E00E948F0161E087E0D5
:100870000E948F010E94000260E080E00E948F01D0
:1008800061E081E00E948F0160E082E00E948F01C0
:1008900060E083E00E948F0160E084E00E948F01AD
:1008A00061E085E00E948F0161E086E00E948F0197
:1008B00060E087E00E948F010E94000260E080E01B
:1008C0000E948F0161E081E00E948F0161E082E07F
:1008D0000E948F0161E083E00E948F0160E084E06C
:1008E0000E948F0161E085E00E948F0160E086E058
:1008F0000E948F0161E087E00E948F010E94000248
:1009000060E080E00E948F0161E081E00E948F0141
:1009100061E082E00E948F0160E083E00E948F012D
:1009200061E084E00E948F0161E085E00E948F0118
:1009300061E086E00E948F0160E087E00E948F0105
:100940000E94000260E080E00E948F0161E081E08F
:100950000E948F0161E082E00E948F0161E083E0EC
:100960000E948F0161E084E00E948F0161E085E0D8
:100970000E948F0160E086E00E948F0161E087E0C5
:100980000E948F010E940002C114D10409F4E0CE3C
:100990000E94EC00882309F4DBCE0E940000D8CE30
:1009A000E5E4F1E01382128288EE93E0A0E0B0E08B
:1009B00084839583A683B7838EE291E091838083BD
:1009C00085EC90E09587848784EC90E09787868714
:1009D00080EC90E0918B808B81EC90E0938B828B0C
:1009E00082EC90E0958B848B86EC90E0978B868BE5
:1009F000118E128E138E148E0895A1E21A2EAA1B48
:100A0000BB1BFD010DC0AA1FBB1FEE1FFF1FA217BE
:100A1000B307E407F50720F0A21BB30BE40BF50BBB
:100A2000661F771F881F991F1A9469F76095709544
:100A3000809590959B01AC01BD01CF010895EE0F0B
:0E0A4000FF1F0590F491E02D0994F894FFCF6C
:100A4E004B00440042004E00460058006200500029
:100A5E00460057004B004C004D007D001000520028
:100A6E007E00670054004F005C0000000000220171
:0C0A7E008200AF006F01E000BE00D2005B
:00000001FF
